:020000021000EC
:10C0000000000120F92F020021300200233002003D
:10C010002530020027300200293002000000000015
:10C020000000000000000000000000002B300200B3
:10C030002D300200000000002F30020031300200DD
:10C040003330020033300200F5DA010005FC010054
:10C05000333002003330020029D2010033300200B5
:10C06000333002003330020033300200333002003C
:10C07000333002003330020033300200333002002C
:10C080003330020029C70100333002003330020090
:10C09000F9C7010033300200692F0200333002007B
:10C0A00033300200333002003330020033300200FC
:10C0B00033300200333002000000000000000000B6
:10C0C00033300200333002003330020033300200DC
:10C0D0003330020033300200333002000000000031
:10C0E0000000000000000000000000000000000050
:10C0F0000000000000000000000000000000000040
:10C10000000000000000000000000000000000002F
:10C11000000000000000000000000000000000001F
:10C4000010B5054C237833B9044B13B10448AFF38E
:10C4100000800123237010BDF820002000000000E0
:10C42000C841020008B5064B1BB106480649AFF3E8
:10C4300000800648036813B1054B03B1984708BD57
:10C4400000000000C8410200FC200020F420002071
:10C4500000000000154B002B08BF134B9D46A3F5B1
:10C46000803A00218B460F461348144A121A00F0F6
:10C4700065F80F4B002B00D098470E4B002B00D0D7
:10C4800098470020002104000D000D48002802D02C
:10C490000C48AFF3008000F02BF82000290003F0D7
:10C4A0001BFE00F011F800BF000008000000012092
:10C4B0000000000000000000F8200020E829002013
:10C4C000000000000000000008B5074B044613B14F
:10C4D0000021AFF30080054B1868836A03B19847C9
:10C4E000204600F033F800BF00000000583E020074
:10C4F00070B50E4B0E4DED1AAD1000241E46AC4229
:10C5000004D056F8242090470134F8E707F096FC51
:10C51000084D094BED1AAD1000241E46AC4204D064
:10C5200056F8242090470134F8E770BDEC20002035
:10C53000EC200020F0200020EC20002002440346E4
:10C54000934202D003F8011BFAE77047FEE700BFF1
:10C5500000B585B0ADF8001001920290002144F2C0
:10C5600001006A4600F036F805B05DF804FB00BF34
:10C5700030B482B001248DF80740154B9DF8075068
:10C58000186044F20104A04259609A6014D044F249
:10C590000201884208D072B69DF80730002BFBD10B
:10C5A00062B602B030BC7047DA60DA6812889A610D
:10C5B000DA685268DA61EEE71A611A6992685A61BC
:10C5C0001A6912889A611A695268DA61E3E700BF52
:10C5D0001421002070B504460E4615460C2003F0C9
:10C5E00091FC204631462A46BDE87040FFF7C0BFA7
:10C5F000494B4A4810B44FF480324FF400340121C3
:10C60000C0F88040C3F848232F20C3F8082359609E
:10C61000013800BF00BF00BF00BF00BF00BF00BFA8
:10C6200000BF00BF00BF00BF00BF00BF00BF00BF12
:10C6300000BF00BF00BF00BF00BF00BF00BF00BF02
:10C6400000BF00BF00BF00BF00BF00BF00BF00BFF2
:10C6500000BF00BF00BF00BF00BF00BF00BF00BFE2
:10C6600000BF00BF00BF00BF00BF00BF00BF00BFD2
:10C6700000BF00BF00BF00BF00BF00BF00BF00BFC2
:10C6800000BF00BF00BFC3D12349254B01200022BA
:10C6900088602F201A60013800BF00BF00BF00BFB4
:10C6A00000BF00BF00BF00BF00BF00BF00BF00BF92
:10C6B00000BF00BF00BF00BF00BF00BF00BF00BF82
:10C6C00000BF00BF00BF00BF00BF00BF00BF00BF72
:10C6D00000BF00BF00BF00BF00BF00BF00BF00BF62
:10C6E00000BF00BF00BF00BF00BF00BF00BF00BF52
:10C6F00000BF00BF00BF00BF00BF00BF00BF00BF42
:10C7000000BF00BF00BF00BF00BF00BFC3D1054BCB
:10C710001A705DF8044B70470010014000E100E022
:10C7200034210020542100202DE9F041294A2A4BD0
:10C730000026C2F84061C2F84461C2F84861C2F8FC
:10C740004C61C2F80061C2F804611B681BB3234945
:10C75000D2F804450A68224FA41A1A6824F07F44CC
:10C76000A242B04609D8197CDD69A41A1644A1B9C1
:10C770001DB12B461A68A242F5D91A4B1A491A78EC
:10C780000B789A421ED01948194940F823604FF49B
:10C790008013C1F80031BDE8F081D3F814C083F8EC
:10C7A00010803A689B696046194642B1904700285C
:10C7B000DED040F265110F4AFFF7CAFED8E71846EF
:10C7C000E047D5E7531CDBB2022B08BF00230B70F8
:10C7D000D9E700BF0010014038210020342100209B
:10C7E0003C21002048210020492100204C2100202C
:10C7F00000E100E05C3E02002DE9F04F9A4B9B49BE
:10C800001A7809789A4889B000680590914200F03A
:10C8100061810132D2B2022A08BF00221A70954B00
:10C8200053F82280059B924A434423F07F431360D0
:10C8300001230293904B914C914D92488C4A24686D
:10C840001B7812680078D5F800B007920494019321
:10C850000690A446039499460021224609F1FF3927
:10C860005FFA89F9B9F1FF0F4FD00FFA89F30BEB9B
:10C87000C3061BF833007778B842EFD000EB4003D3
:10C88000746896F802A014F833500130C0B28245A3
:10C8900008BF0020022D04EBC3030CD0032DEBD105
:10C8A0000AB9E9E71A46D3691174002BFAD19C46FC
:10C8B0001A467778E0E75D68002ADDD09542144695
:10C8C00001D112E01C46E369002BD5D09D42F9D17D
:10C8D0009C420BD0DD691F68E561002DE9D02B6813
:10C8E0003B442B6077786246C6E71346D26994468C
:10C8F000002AEFD102F1804202F5883201259560CD
:10C900006246CDF81CC00695E4E75C48584BC0F879
:10C9100000C05C4D02980392069C079A1A602C7026
:10C92000002840F0B380049A039BD21A18BF01225A
:10C93000049205461E46524C5248504A4C4B2468BD
:10C940000078D2F800A0D3F800C0DFF83C9106943C
:10C95000059000274FF00108019C631EDBB2FF2BFE
:10C96000019371D0069C04EBC30B35B36A68A968C8
:10C970002B46ED69CCEB020020F07F40484539D8CA
:10C98000014419605F609F6083F81080DF61002EB2
:10C9900045D03068884239D2344603E01068884276
:10C9A0003AD21446E269091A002AF7D1DA6119600D
:10C9B0003246E3611646002DD8D19BF800309BF833
:10C9C00001209A42C8D0591C9BF80240DBF8042091
:10C9D000C9B203EB43038C428BF8001008BF8BF8FD
:10C9E000005002EBC30012F833204368012A19D02B
:10C9F0003246DFE7C2EB0C0222F07F428A4239BFA7
:10CA0000C2EB010119601F600021BBE7411A3160D0
:10CA10009A461A46DE61CDE7401A1060C6E79A468C
:10CA20001A46C7E71A7C0292002AE1D182685A604E
:10CA3000C16899600469DC604069986105980028C4
:10CA400098D0029A5A6095E703980C4D8642C5F833
:10CA500000A044D1049A002A41D10A4D00232B7032
:10CA600009B0BDE8F08F00BF482100204921002017
:10CA7000342100204C2100204021002038210020BA
:10CA8000442100204A210020FEFF7F00039B002557
:10CA9000614628462C46B3B11A68424500F2E1804F
:10CAA000059ED9681C6010440644C2EB080826F0B5
:10CAB0007F46DA6919B1DD615E6099601D461346F3
:10CAC0001146002BE8D16C4A0393012311600493B3
:10CAD000039E30E74FF00008CDF80880AAE6002E4C
:10CAE00000F0BC80654C664B2168D3F80425654C8A
:10CAF000D6F800C02078C1EB020828F07F4808F182
:10CB0000030800285AD0E0452CBF414461445C4BE7
:10CB100021F07F41C3F84015D3F80405801A8A1A22
:10CB200020F07F4122F07F420331914295D9D3F822
:10CB30000425C3F840252F20013800BF00BF00BFE7
:10CB400000BF00BF00BF00BF00BF00BF00BF00BFED
:10CB500000BF00BF00BF00BF00BF00BF00BF00BFDD
:10CB600000BF00BF00BF00BF00BF00BF00BF00BFCD
:10CB700000BF00BF00BF00BF00BF00BF00BF00BFBD
:10CB800000BF00BF00BF00BF00BF00BF00BF00BFAD
:10CB900000BF00BF00BF00BF00BF00BF00BF00BF9D
:10CBA00000BF00BF00BF00BF00BF00BF00BFC3D1B8
:10CBB000354B4FF40032C3F800214EE7324D4FF4AD
:10CBC00080374FF400364FF00109C3F844732F202B
:10CBD000C3F80473C5F880612E60C3F80090013873
:10CBE00000BF00BF00BF00BF00BF00BF00BF00BF4D
:10CBF00000BF00BF00BF00BF00BF00BF00BF00BF3D
:10CC000000BF00BF00BF00BF00BF00BF00BF00BF2C
:10CC100000BF00BF00BF00BF00BF00BF00BF00BF1C
:10CC200000BF00BF00BF00BF00BF00BF00BF00BF0C
:10CC300000BF00BF00BF00BF00BF00BF00BF00BFFC
:10CC400000BF00BF00BF00BF00BF00BF00BF00BFEC
:10CC500000BF00BFC3D10123237054E7FFF7C8FC16
:10CC6000FBE6054C0393C8EB020201201A60216029
:10CC700004901E465FE600BF3821002034210020CA
:10CC8000001001405421002000E100E02DE9F04FA8
:10CC900012F0030485B003D0072005B0BDE8F08F83
:10CCA000002A4BD00390029101920093FFF7A0FC61
:10CCB0000299019ADFF8A480147001EB410B02F194
:10CCC00018064FEACB0B06EB0B05AB449170547082
:10CCD000917291745660C2F814B0D5601472547297
:10CCE00014745474DFF878A0009BC8F8002016492B
:10CCF000DFF87090DFF870C0144F154ACAF80030A2
:10CD00004FF48015C0234FF0030B14703C7089F86A
:10CD100000B0CCF800400F4EC1F8805181F81433B8
:10CD20000D600398C6F8080581F811330A4AD6F851
:10CD300004351360204605B0BDE8F08F074B07208F
:10CD40001A6005B0BDE8F08F00E100E04821002046
:10CD500049210020001001403421002044210020FE
:10CD60003C2100204021002038210020074B1B6877
:10CD700023B12AB120B10368187C18B1082070478C
:10CD80000720704759745A61704700BF4421002042
:10CD90002DE9F001304B1B6833B128B1042907D8C5
:10CDA0000720BDE8F00170470820BDE8F00170479A
:10CDB0004469002CF8D0447C012C0CBF8C464FF009
:10CDC000000CEFF30584C4F3080494B1103C65B281
:10CDD000002D35DB05F1604404F5614494F800430F
:10CDE0006409E4B2022C34D0062C0CBF08241024B1
:10CDF00000E0102423445D789F781E786C1CE4B218
:10CE0000A74208BF0024A64221D005EB45055F6874
:10CE1000EE00BD191BD04FF0010807F806800F4F38
:10CE200068600F4ED7F80405A8604FF48017E960DA
:10CE3000C5F810C06A6100205C70C6F80071B4E7E4
:10CE4000084D04F00F0425442C7E6409C9E7042032
:10CE5000ABE70024CEE700BF4421002000100140D2
:10CE600000E100E0FCEC00E0F0B4274B1A68034658
:10CE7000E2B1D8B14169C9B100210174EFF3058174
:10CE8000C1F30801A9B1103948B2002835DB00F11F
:10CE9000604101F5614191F800134909C9B20229C5
:10CEA00029D006290CBF0821102103E00820F0BC7E
:10CEB000704710210A44507895781478411CC9B203
:10CEC0008D4208BF00218C4213D000EB4000546813
:10CED000C00014EB000C0CD00C4D022727544FF46B
:10CEE0008016CCF804305170C5F800610020F0BC09
:10CEF00070470420DBE70021DCE7054801F00F0163
:10CF00000844017E4909C9E74421002000E100E00E
:10CF1000FCEC00E020B1034B5B6D03600020704728
:10CF2000032070475821002070B5161E0C4606DD00
:10CF30008D1914F8010B00F031F9AC42F9D13046EB
:10CF400070BD00BF10B50C46204600F00BF9052857
:10CF5000FAD0012010BD00BF59B10AB909207047AD
:10CF6000531E1A40FAD1826001608380C26010466D
:10CF700070470E20704700BF10B403468068DC681D
:10CF80009A88201A824203D204205DF8044B70472D
:10CF9000D8681C6802400020A154DA680132DA60C7
:10CFA0005DF8044B704700BF10B403468068DA6830
:10CFB00090420CD098689C881A6804400020125D4A
:10CFC0000A709A6801329A605DF8044B7047052038
:10CFD0005DF8044B704700BF30B50478012C83B076
:10CFE00017D0022C31D00CB103B030BD25482649F2
:10CFF000FFF7DAFF20B3234B9A68DB689A42F3D13C
:10D0000002A8032300F8083D204B68461B68984798
:10D01000EAE743681E4D19782846FFF7ADFF08BBC5
:10D02000AB68EA68D31A012B24D0AB68E968AA88F8
:10D03000CB1A9A42D8D30121164800F049FCD3E715
:10D040000121114800F0A4FBD5E7C3681148019302
:10D0500001218DF8004000F03BFC0C4B68461B683A
:10D060009847C1E7094B01908DF800401B6868465E
:10D070009847DAE702AB054A03F8080D12686846DC
:10D080009047D2E7BC210020B0210020B42100202D
:10D09000CC210020B82100202DE9F0472B4D88B08D
:10D0A0000C4606461F462A60002948D028480968D1
:10D0B000A288FFF751FF10B108B0BDE8F0872548FE
:10D0C000A168A289FFF748FF0028F5D1224D96F804
:10D0D00004A096F80590D6F8088096F803C096F854
:10D0E00002E00FCD6C460FC495E80F001AF1000561
:10D0F00018BF0125B9F1000F84E80F000CBF002410
:10D100000E243278737815498DF81C7068468DF8B6
:10D1100014508DF81540CDF81880CDF808C0CDF822
:10D120000CE00192009300F06FFA0028C4D19DF842
:10D130001D3043B101210A4800F0CAFBBCE70720BB
:10D1400008B0BDE8F08700F0BBFCF3E7B421002095
:10D15000CC210020BC210020B43E0200D9CF010028
:10D16000B821002010B50B4B9968DC689A88631AC7
:10D170009A42044605D021460648BDE81040FFF714
:10D1800013BF0548012100F0A3FB0028F3D00520C0
:10D1900010BD00BFCC210020B821002010B50146F1
:10D1A0000B48FFF7E9FE044608B1204610BD00F029
:10D1B00087FB0028F9D106480649FFF7F5FE00284D
:10D1C000F3D104480121BDE8104000F0E1BA00BFEE
:10D1D000BC210020B0210020002810B419DB00F190
:10D1E0006043490103F56143C9B283F80013C2B239
:10D1F00043099B0003F1604303F5614302F01F0202
:10D20000012101FA02F2C3F880211A605DF8044B93
:10D210007047C2B2034B02F00F0449012344C9B264
:10D220001976E5E7FCEC00E02DE9F04FA54B1A6814
:10D23000012A83B000F09D800024A34B1A68012AC4
:10D2400000F0A980A14B1A68012A00F0B680A04B1B
:10D250001A68012A00F0C3809E4B1A68012A00F068
:10D26000D0809D4B1A68012A00F0DD809B4B1A6824
:10D27000012A00F0EA809A4B1A68012A00F0F78030
:10D28000984B1A68012A00F004814FF0000814F04E
:10D29000FF0F17D0E10700F12F81A20700F13B81BA
:10D2A000630700F14781270700F15381E60600F18B
:10D2B0005F81A50600F16B81600600F17781210690
:10D2C00000F1F380002C02DB03B0BDE8F08F864D47
:10D2D0004FF0FF36A5F153074FF0000A834C4FF093
:10D2E000000914F8013F5AB2013221D0DBB223F019
:10D2F000C00026FA00F2D2071AD53A18990992F915
:10D30000303057F823205AB34FF0010C03290CFAA0
:10D3100000FC2BD0830003F1A0431CEA080FD3F8D4
:10D3200000B7CBF3014B11D1BBF1030F00F04E81DD
:10D33000AC42D6D1B9F1000FC6D04FF0A043D3F81C
:10D3400010359845C0D098465646C7E7BBF1020F46
:10D35000EED1032900F05081002AE9D09047E7E799
:10D360000329E5D14FF0010C0CFA00FC4AEA0C0A43
:10D37000D0E75F49D1F8041311F001043FF45DAF29
:10D38000002119601B680093009B4F4B14461A68DC
:10D39000012A7FF457AF564AD2F8042390077FF54D
:10D3A00051AF00221A601B680093009B474B1A681C
:10D3B000012A44F002047FF44AAF4D4AD2F8042314
:10D3C00051077FF544AF00221A601B680093009B51
:10D3D0003F4B1A68012A44F004047FF43DAF444AED
:10D3E000D2F8042312077FF537AF00221A601B68BA
:10D3F0000093009B374B1A68012A44F008047FF41D
:10D4000030AF3B4AD2F80423D7067FF52AAF00227B
:10D410001A601B680093009B2F4B1A68012A44F086
:10D4200010047FF423AF324AD2F8042396067FF526
:10D430001DAF00221A601B680093009B274B1A68DF
:10D44000012A44F020047FF416AF294AD2F80423BD
:10D4500055067FF510AF00221A601B680093009BF1
:10D460001F4B1A68012A44F040047FF409AF204A98
:10D47000D2F8042310067FF503AF00221A601B6860
:10D480000093009B174B1A68012A44F080047FF434
:10D49000FCAE00221A601B6801934FF0A043019A72
:10D4A000D3F8108544F00044F1E6114B114AD3F84B
:10D4B0002C05D3F82C15D369C0F30420C1F3014126
:10D4C0009847FFE6006100400461004008610040A9
:10D4D0000C61004010610040146100401861004080
:10D4E0001C6100407C6100402F2200202B22002084
:10D4F00000600040DC210020414B424AD3F8100577
:10D50000D3F810151368C0F30420C1F30141984704
:10D51000A2077FF5C5AE3A4B3A4AD3F81405D3F8C3
:10D5200014155368C0F30420C1F301419847630701
:10D530007FF5B9AE324B334AD3F81805D3F8181536
:10D540009368C0F30420C1F30141984727077FF592
:10D55000ADAE2B4B2B4AD3F81C05D3F81C15D36862
:10D56000C0F30420C1F301419847E6067FF5A1AE60
:10D57000234B244AD3F82005D3F820151369C0F3B0
:10D580000420C1F301419847A5067FF595AE1C4BD9
:10D590001C4AD3F82405D3F824155369C0F304209A
:10D5A000C1F30141984760067FF589AE144B154AD7
:10D5B000D3F82805D3F828159369C1F30141C0F3C6
:10D5C0000420984721067FF57DAE6EE703297FF49E
:10D5D000C3AE4FF4003BD3F800C72CF4403CC3F873
:10D5E00000C7D3F800C709F101094BEA0C0C5FFA38
:10D5F00089F9C3F800C7AFE64FF4403BEBE700BF43
:10D6000000600040DC2100202DE9F041564CE37E13
:10D6100013B10820BDE8F081544A002808BF104625
:10D6200001270668457F25774FF0A04207FA06F6E6
:10D63000C2F80865066806F5E0764FF0030C42F87C
:10D6400026C0466806F5E07642F82630002D4AD11D
:10D65000474B8669C3F82465077D467D3E43C3F882
:10D660006C6590E8C000C3F80C65C3F8147590F8B9
:10D670001480B8F1010F14D1876807F5E07742F8FC
:10D680002750C66808FA06F6C2F80865C66806F5A7
:10D69000E07642F826C0C2688668C3F80825C3F859
:10D6A000106503696160236069B1017F002D4BD172
:10D6B000304E31482E4B314A35600560C3F80423A3
:10D6C0000220FFF789FD237F002B38D0284B08224A
:10D6D000C3F8002500200123E0752076A075A07610
:10D6E000E376BDE8F081224E8769C6F8247590F88C
:10D6F0001480477D48EA0707C6F86C7590E88001FA
:10D70000C6F80C75C6F8148590F81480B8F1010FAE
:10D71000C7D1876807F5E07742F82730C36808FA71
:10D7200003F3C2F80835C36803F5E07342F823C079
:10D73000C3688268C6F80835C6F81025B1E70C4BF7
:10D740000422C3F80025C5E7DFF840E00C4F0D4E7A
:10D75000094D074A0C480023CEF800303B60336087
:10D760002B60C2F80403ABE734220020D43E020051
:10D77000002000401C2100404421004080000200A5
:10D78000202100402421004010030200102100400D
:10D790002DE9F001434A137F43B1040C2404B4F192
:10D7A000005F03D01020BDE8F0017047957D3D4C2F
:10D7B0001DB11120BDE8F0017047A175A060A582E0
:10D7C000BBB93949394D0B6001262E600B60B4F8A6
:10D7D00014C0A78A364E65681FFA8CFCBFB20137A9
:10D7E00010F80C00BFB2A782C6F81C05B5B11846E8
:10D7F000D9E767682E4B2F4E2F49DFF8B0C094F859
:10D800001680356001240D60C3F84405C3F84885CF
:10D81000CCF80040002F33D02846C4E71F46957D42
:10D82000908A204B80B2854205D819E0938A9BB23A
:10D83000B3F5807F02D00B68002BF7D0908A80B2BE
:10D84000B0F5807FECD00F60A58AA08AA368ADB246
:10D8500080B201305B5D80B2A082C6F81C35DEE785
:10D860009B8A9BB2B3F5807F1AD00F490B68002BBF
:10D87000FCD0124B0121196000200023937592E720
:10D880003446084600E059B923680168003118BFE2
:10D890000121002BF7D0002914BF0F200020ECE756
:10D8A0000F20EAE7342200201C210040082000401D
:10D8B0000020004020210040582100400C20004062
:10D8C000024B987D003018BF0120704734220020A1
:10D8D0002DE9F001734B1A7FE2B9D3F80480B8F157
:10D8E000000F04D0704C4FF40175C4F80853DD7D6F
:10D8F0006C4CC5B1257E002D33D0B8F1000F00F07F
:10D90000AB80694B002A51D04FF40472C3F8042352
:10D91000112005E0040C2404B4F1005F4CD0102069
:10D92000BDE8F0017047E175E06065762576EAB9FB
:10D930009A7E5C494AB945B95C4C5D485A4AD1F86F
:10D9400004802560012105601160B8F1000F42D00C
:10D95000554B4FF40172C3F804230020BDE8F001D9
:10D960007047206121760125002AE1D04E4A514FAF
:10D97000514E00243C603460C2F83405C2F83815BA
:10D980006DB9012111605A68002A67D0464B4FF4E7
:10D990000472C3F804230020BDE8F0017047D2F8F8
:10D9A000001241F02001C2F80012ECE74FF40172BE
:10D9B000C3F804231120B3E7D3F80480B8F1000FB3
:10D9C00095D0394C4FF40475C4F80853DD7D354CBF
:10D9D000002DA8D08EE7384D344E354C314FDFF84E
:10D9E000C8C0C5F80080316820682A68003118BFB7
:10D9F0000121003218BF012228B9DAB1E1B90022B1
:10DA0000DA750F208CE7B9B9002AF8D1D97DB9B9F8
:10DA10002160DCF818255A7ED97D22489142E2D84F
:10DA2000837E0022C275002B37D01F4B0121104688
:10DA3000196075E70029D6D00022DA7503206FE758
:10DA40002260787EDCF81885797EFA68013102F868
:10DA50000080CAB27A76DEE7112061E7154E164DD6
:10DA6000124C01E090B9A9B93268286821680030E9
:10DA700018BF0120003118BF0121002AF2D0002276
:10DA8000DA750029DAD10028BBD149E7DA75002917
:10DA9000D4D1B6E7D875032042E7084A01211846D9
:10DAA00011603DE734220020002000402421004086
:10DAB0000821004010210040442100400420004083
:10DAC00010B4084B1A7F4AB99A7E3AB90649074CF6
:10DAD00007480A6001212260997601605DF8044BD5
:10DAE000704700BF3422002024210040082100405C
:10DAF00000200040F0B59C4C237F85B0002B74D1F2
:10DB00009A4AD2F80413890548D4984BD3F80423D1
:10DB1000520710D5964A116869B1E17D92480029F3
:10DB200040F009811160D3F81835627EE17D8E4B9B
:10DB3000914200F0E4808F4B1A68A2B1A08AA17DC7
:10DB4000894A80B2814240F2948000211960958A0E
:10DB5000908A93688549ADB280B201305B5D80B236
:10DB60009082C1F81C35844B1A68AAB1A27E0021AC
:10DB70001960002A78D1E27D7B4B6AB1597EDA6860
:10DB80008DF808100020012101928DF80010D87541
:10DB900093E806006846904705B0F0BD77490868ED
:10DBA0000028B2D0A07E0B604FF40173C2F8083396
:10DBB00028B903F1804303F5F05301221A606B4A40
:10DBC00002238DF80030D2F88034C2F88034E07D32
:10DBD000E26803938DF808000023019221686268CF
:10DBE000E375684623769047A5E7644A1368002BDF
:10DBF00050D1634A116839B15C491360D1F83C05D2
:10DC0000E27DC0B2824261D05B4B1A689AB1E17D7D
:10DC1000554800221A6071B15449C368D1F83C15C7
:10DC20008DF80810012101938DF80010C27590E85D
:10DC30000A0068469847534B1A68002AACD0A17D69
:10DC4000494800221A600029A6D048498368D1F8C3
:10DC50004C158DF808100193827590E80A008DF834
:10DC600000206846984797E7A3F5A27301221A603F
:10DC700081E70020186000293FF475AF93688DF8A4
:10DC800000008DF808100193907592E80A0068462C
:10DC9000984768E700233549136002208DF800009B
:10DCA000D1F88024C1F880240392D1F83C15E268B1
:10DCB0008DF80810019221686268E3756846237642
:10DCC00090472D4B1A68002AB5D0A0E7277E002F79
:10DCD0003DD0D1F80002E77520F02007266965687D
:10DCE000C1F8007201278DF80820E26821680192CE
:10DCF0008DF8007068462376E660A84784E71A7EB0
:10DD0000002A43D19B7E13B91F4B01221A60174989
:10DD1000E26863684FF40170C1F80803617E8DF812
:10DD20000810012001928DF8000000222168E275A0
:10DD300068469847FFE600211160417ED3F81855E8
:10DD4000427EC36801325D54D3B24376EDE6E368A8
:10DD50008DF80820012201938DF8002094E80A0034
:10DD60006846E77598474FE73422002000200040BE
:10DD7000082100401C210040442100402421004093
:10DD8000102100402021004004200040D968587E26
:10DD9000019101218DF808008DF800101D69DA75D8
:10DDA00093E8420000226846DD601A765A76B04752
:10DDB000C1E600BF29DF704728DF704770B582B029
:10DDC00030B1112806D1104B1A6842F008021A60CF
:10DDD00002B070BD0D4B0E4A1C781268009204EB25
:10DDE000840403EB84040B4DE2686369217902EB40
:10DDF0004206024655F8265004F10C00A847064B8F
:10DE000004221A7002B070BD442300205422002066
:10DE10005023002028230020492300202DE9F0432F
:10DE20005A4C5B4E23785B4D5B4F83B0032B4FD82E
:10DE3000DFE803F0635E02512978DFF868814FF074
:10DE4000805201EB810105EB810110690B69B1F88A
:10DE500006E0D8F8001080B2B3FBF0F03060126931
:10DE6000013B734492B2B3FBF2F398424B4B08BFB1
:10DE700021F001091B680CBF49F0020921F00309D8
:10DE8000C8F8009013B919F0020F75D0444A002168
:10DE90004FF0102311705B695A1C64D04FF0805210
:10DEA000116989B2B3FBF1F14FF080530139186960
:10DEB0001A6980B200FB01F092B2B0FBF2F0FFF7FA
:10DEC0007BFF28B1112831D149F00803C8F8003090
:10DED00003B0BDE8F0833068FFF76EFF0028F7D08D
:10DEE000112823D12F4B1A6842F008021A60EFE77D
:10DEF00003B0BDE8F04300F0E9BB2B482B496A783A
:10DF0000002303600B60002AE2D02A78284902EB44
:10DF1000820205EB82021379D2880A60032B26D095
:10DF2000042B24D0012BD3D123707FE795F800E098
:10DF3000DFF87CC00EEB8E0E05EB8E0EDCF80030A9
:10DF4000DEF80C20DEF814809EF80410009302EB3B
:10DF5000420C4346024657F82CC00EF10C00E04735
:10DF60000423237062E74FF0805359699CE703B0A4
:10DF7000BDE8F04300F01EB8094B02221A70FFF70B
:10DF80001BFF03B0BDE8F043FFF718BF4923002093
:10DF90005C23002054220020282300205823002046
:10DFA0004823002044230020542300202023002065
:10DFB000502300202DE9F0073D4ADFF808C1117811
:10DFC0003C4F01EB810102EB81034FF08056D96891
:10DFD0001A693069DD881C8901EB41030CEB83036E
:10DFE00080B2B3F80890B3F80AC0D3F804A0B2FB2B
:10DFF000F0F300FB13204FF000082B190CFB09ACC9
:10E000001344C7F8008028B9306980B2854221D016
:10E0100063451DD003291DD04FF08051224408696B
:10E02000254D80B2B2FBF0F400FB142292082A6066
:10E0300063450A6905D092B2B3FBF2F002FB1032DD
:10E04000BAB91E4B02221A70BDE8F007FFF7E6BE10
:10E05000002CDFD14FF0805319481969174B89B252
:10E06000B2FBF1F2032102601970BDE8F007FFF77F
:10E07000D5BE08690A699BB21FFA8CFC80B292B2C5
:10E08000BCFBF0F0B3FBF2F290420CD008690A69D5
:10E0900092B2B3FBF2F102FB11339BB281B2CB1A05
:10E0A0009B083B60CDE7C3EB0C039B083B60C8E7D4
:10E0B000542200202423002058230020492300203C
:10E0C0005C230020282300202DE9F84F224CBDF8C6
:10E0D000287065780A2D264638D094F800C0DFF8FD
:10E0E0008090DFF874B099F800A00CEB0504092CBF
:10E0F00088BF0A3C4FF0140808FB046401356261D4
:10E10000207103C904F10C0282E803007570E380FA
:10E110002781BAF1000F1CD108FB0CBC0F4A9CF8F8
:10E120000430BCF806101160032B0AD0042B08D071
:10E13000012B0ED189F80030FFF770FE5046BDE884
:10E14000F88FFFF737FF5046BDE8F88F0420BDE891
:10E15000F88F0020BDE8F88F5422002050230020C3
:10E1600049230020F0B527490B6813F0080483B059
:10E170000AD02548254A007823F0080352F82020C9
:10E180000B60904703B0F0BD214D287800EB800074
:10E1900005EB8000017904292CD0C2681D4E1E4F6A
:10E1A00036684369009602EB42020C3057F8226051
:10E1B0002246B0472A78697802EB820305EB830395
:10E1C0000132D2B202200A2A1C71DC801C615C611F
:10E1D0001C81D860114B18BF2A7001F1FF314FF03C
:10E1E0000002697008BF2C701A7003B0BDE8F040DF
:10E1F000FFF714BE094B01221A7003B0BDE8F040CE
:10E20000FFF70CBE4423002048230020F43E020008
:10E2100054220020502300202823002049230020DE
:10E2200070B54FF0102382B05B695A1C3ED04FF09E
:10E2300080521569ADB2B3FBF5F54FF080531D4A1E
:10E240001869196914681A6980B26B1E89B200FBDB
:10E2500003F0C2F38D0204FB01F1FFF7ABFD30B117
:10E26000112806D1144B1A6842F008021A6002B055
:10E2700070BD124B124A1C781268009204EB8404A1
:10E2800003EB84040F4DE2686369217902EB4206D7
:10E29000024655F8265004F10C00A8470A4B042208
:10E2A0001A7002B0BDE87040FFF7B8BD4FF0805360
:10E2B0005D69C2E75C230020442300205422002033
:10E2C00050230020282300204923002070B5244A31
:10E2D000244C10684FF080534FF010221969526996
:10E2E00089B2013800FB01F0511C14BF1B695B6946
:10E2F0004FF0805118BF9BB2096918BFB2FBF3F30E
:10E30000013B89B282B0226801FB03F1FFF752FDA5
:10E3100030B1112806D1144B1A6842F008021A6075
:10E3200002B070BD114B124A1C781268009204EBC7
:10E33000840403EB84040F4DE2686369217902EBE6
:10E340004206024655F8265004F10C00A8470A4B35
:10E3500004221A7002B0BDE87040FFF75FBD00BF35
:10E360005C23002058230020442300205422002056
:10E3700050230020282300204923002070B5224C80
:10E380002368190782B016D420499A07204A0868E2
:10E3900048BF43F001034FF0020148BF23601D4610
:10E3A0001170FFF709FD20B111280FD145F00805C4
:10E3B000256002B070BD1649164A097823F008039B
:10E3C00052F821202360904702B070BD124B134ACF
:10E3D0001C781268009204EB840403EB8404104D53
:10E3E000E2686369217902EB4206024655F826503D
:10E3F00004F10C00A8470B4B04221A7002B0BDE8D0
:10E400007040FFF70BBD00BF442300205C230020B9
:10E4100048230020F43E0200542200205023002014
:10E42000282300204923002070B5284C237803EBD3
:10E43000830304EB83034FF08052DE8818891D6943
:10E4400013694FF01021304428449BB24D69B0FB52
:10E45000F3F103FB1103691C14BF126955694FF0F6
:10E46000805118BF92B2096918BFB5FBF2F5184A7E
:10E47000013D89B282B0126801FB0531FFF79AFCB9
:10E4800030B1112806D1134B1A6842F008021A6005
:10E4900002B070BD2378104A104D1268009203EB51
:10E4A000830304EB8304E2686369217902EB42068B
:10E4B000024655F8265004F10C00A847084B0422E8
:10E4C0001A7002B0BDE87040FFF7A8BC54220020CB
:10E4D0002423002044230020502300202823002050
:10E4E0004923002070B5164B82B01868FFF764FC12
:10E4F00030B1112806D1134B1A6842F008021A6095
:10E5000002B070BD104B114A1C781268009204EBE7
:10E51000840403EB84040E4DE2686369217902EB05
:10E520004206024655F8265004F10C00A847094B54
:10E5300004221A7002B0BDE87040FFF76FBC00BF44
:10E540005C2300204423002054220020502300207C
:10E550002823002049230020F0B52C4C2C4A2568A4
:10E56000290783B009D52B4B127825F0080553F8FD
:10E5700022302560984703B0F0BD01214FF01023F1
:10E5800011705B695A1C3DD04FF080521769BFB2C1
:10E59000B3FBF7F74FF080531F4A186919691668E3
:10E5A0001A6980B27B1E89B200FB03F0C2F38D02B0
:10E5B00006FB01F1FFF7FEFB0028DCD0112804D197
:10E5C00045F00805256003B0F0BD144B144A1C78D3
:10E5D0001268009204EB840403EB8404114DE2689A
:10E5E0006369217902EB4206024655F8265004F190
:10E5F0000C00A8470C4B04221A7003B0BDE8F04091
:10E60000FFF70CBC4FF080535F69C3E74423002041
:10E6100048230020F43E02005C2300205422002006
:10E6200050230020282300204923002070B54FF0FC
:10E63000102382B05B695A1C39D04FF080521169A7
:10E6400089B2B3FBF1F14FF08053013918691A69AF
:10E6500080B200FB01F092B2B0FBF2F0FFF7ACFB2E
:10E6600030B1112806D1144B1A6842F008021A6022
:10E6700002B070BD114B124A1C781268009204EB74
:10E68000840403EB84040F4DE2686369217902EB93
:10E690004206024655F8265004F10C00A8470A4BE2
:10E6A00004221A7002B0BDE87040FFF7B7BB4FF00C
:10E6B00080535969C7E700BF44230020542200203B
:10E6C000502300202823002049230020F0B53B4D93
:10E6D0002C7804EB840405EB84044FF0805304345D
:10E6E0001969628889B28A4283B013D8A088E36826
:10E6F000216992081844FFF75DFB30B1112829D138
:10E700002F4B1A6842F008021A602E4B62881A607A
:10E7100003B0F0BDD3F810E0A788E0681E69216956
:10E720001FFA8EF3D31A3844C6F38D0218441944E5
:10E73000FFF740FB30B1112826D1214B1A6842F077
:10E7400008021A604FF080521E4B126992B21A6092
:10E7500003B0F0BD2B781C4A1C4E1268009203EBEC
:10E76000830305EB8305EA686B69297902EB4207AD
:10E77000024656F8276005F10C00B047144B0422FE
:10E780001A70FFF74BFBC0E72B780F4A0F4C12684B
:10E79000009203EB830305EB8305EA686B69297933
:10E7A00002EB4206024654F8264005F10C00A04751
:10E7B000074B04221A70FFF731FBC3E754220020F5
:10E7C0004423002020230020502300202823002061
:10E7D000492300202DE9F04F664D2C6814F00808FD
:10E7E00083B057D1644E654A3378176803EB8303CF
:10E7F00006EB830C0CF10403D868B3F802B0B3F84D
:10E8000004904FF08051421E5A44D1F810A04A445F
:10E81000002F4BD15A4908684FF08051096989B2DD
:10E82000B2FBF1F2904279D36FD0002F6ED19CF8F9
:10E830000410042900F09B801846524C50F8082F11
:10E840002468514D1B69009402EB420255F82240A6
:10E850003A46A04732787178474C02EB820306EBC8
:10E8600083030132D2B202200A2A01F1FF311F7163
:10E87000DF801F615F611F81D860444B18BF227029
:10E88000717008BF277000221A7003B0BDE8F04F06
:10E89000FFF7C4BA3E4A3F4B127824F0080453F8FD
:10E8A00022302C60984703B0BDE8F08F34481FFA3F
:10E8B0008AFA0068B2FBFAFA8245ADD1364B344889
:10E8C000C3F8008044F001024FF0102380F800806C
:10E8D0002A605869431C48D00A6992B2B0FBF2F230
:10E8E0004FF08053013A18691B6980B200FB02F0B7
:10E8F0009BB2B0FBF3F0FFF75FFA0028D3D01128EA
:10E900001CD144F009042C60CDE73FB1204B032219
:10E910001A7003B0BDE8F04FFFF786BD1E491C4BCF
:10E92000002702220F601A70FFF746FA0028BAD0BB
:10E93000112803D144F008042C60B4E73378114A5D
:10E94000114C1268009203EB830306EB8306F26816
:10E950007369317902EB4205024654F8254006F10D
:10E960000C00A047094B04228EE74A69B8E7074B21
:10E97000012289E744230020542200202423002080
:10E980005C2300205023002028230020492300205E
:10E9900048230020F43E0200582300202DE9F041D6
:10E9A000854D2C68200782B000F18F80834B844A0C
:10E9B00019681268481C1860002A49D1814E3378C2
:10E9C00003EB830306EB83073B1D4FF08051DA68AE
:10E9D000B3F80280B3F804C00969013A42446244C2
:10E9E00089B2B2FBF1F290427FD37AD0764AD2F864
:10E9F0000080B8F1000F00F0A68014F0010340F091
:10EA00009A8072484FF0102244F00101037029608F
:10EA100053695A1C00F0C9804FF08052116989B2C5
:10EA2000B3FBF1F14FF08053013918691A6980B2D4
:10EA300000FB01F092B2B0FBF2F0FFF7BDF920B19C
:10EA4000112861D144F009042C6002B0BDE8F081C6
:10EA50005E484FF08053042606704FF01026186968
:10EA6000766980B201FB00F0711C17BF1B695E69FB
:10EA70009BB2B6FBF3F64FF08053711E1B699BB23D
:10EA800003FB01F1FFF796F90028DED0112835D0FD
:10EA90004C4B4F4A1C781268009204EB840403EB41
:10EAA00084044C4DE2686369217902EB4206024618
:10EAB00055F8265004F10C00A847474B04221A7061
:10EAC00002B0BDE8F041FFF7A9B9404A434B1278C4
:10EAD00024F0080453F822302C60984702B0BDE8B7
:10EAE000F081394B1B68002B87D1384B02221A70FA
:10EAF000FFF762F90028A8D0112805D144F00804D6
:10EB00002C6002B0BDE8F0813378314A314C126894
:10EB1000009203EB830306EB8306F2687369317995
:10EB200002EB4205024654F8254006F10C00A047CE
:10EB3000294B0422C3E7254B03221A7002B0BDE81B
:10EB4000F041FFF771BC3979042932D09A68204826
:10EB5000204C00681B69009002EB420207F10C0098
:10EB600054F822404246A0473278717802EB820383
:10EB7000013206EB8303D2B20A2A4FF0020001F100
:10EB8000FF3183F80480A3F80680C3F81080C3F82F
:10EB90001480A3F80880D86018BF3270717008BF65
:10EBA00086F800800C4B002289E74FF080535969AA
:10EBB00038E7094B012282E7442300205C23002030
:10EBC0005823002054220020242300204823002022
:10EBD000502300202823002049230020F43E020077
:10EBE000F0B5294C294D20782B68294E294F83B048
:10EBF00000EB800004EB80000093C2680179436958
:10EC000002EB42020C3056F822600022B047227814
:10EC1000607802EB8203013204EB8303D1B20A294C
:10EC20004FF000024FF00206DE601A71DA801A61BE
:10EC30005A611A8100F1FF3004BF22701146164E4E
:10EC4000164A18BF21700023C0B2607033703B6059
:10EC5000136008B903B0F0BD01EB810104EB81043E
:10EC60002379E2882A60032B09D0042B07D0012BDB
:10EC7000F0D1337003B0BDE8F040FFF7CFB803B078
:10EC8000BDE8F040FFF796B9542200205023002041
:10EC90002823002054230020492300202023002083
:10ECA0002DE9F041644C237813F0FB0F82B0054648
:10ECB00025D0022826D0032821D1604A11680807F0
:10ECC0000DD5022B62D0032B01D0012B17D121F0DF
:10ECD0000801116002B0BDE8F041FFF79FB8584944
:10ECE0000A680132B2F57A7F0A6000F08680022B52
:10ECF000F0D1544A544B127853F82230984702B05E
:10ED0000BDE8F081022B41D0032B46D0012BF6D178
:10ED10004A4B1A68160767D44C4F4D4B38781A681F
:10ED200000EB800007EB8000C688B61AB6B2C6803A
:10ED3000002E5DD1C268DFF824C1D0F81480DCF861
:10ED40000030DFF81CE10179009302EB42024346F8
:10ED50005EF822C00C303246E0473A78797802EB10
:10ED6000820307EB83030132D2B20A2A01F1FF3199
:10ED70001E71DE80DD601E615E611E814FF000034A
:10ED8000797014BF3A703E702370A3E72D4A314B5F
:10ED9000127853F822309847B1E7284B1A681507C4
:10EDA00022D42A4B2C4918780A6800EB800003EB28
:10EDB0008000013205690A604FF0805CC7880689CF
:10EDC000DCF81030691E394431449BB2B1FBF3F3D7
:10EDD0009A42FFF47FAF2AD00379042B24D002B0EB
:10EDE000BDE8F041FFF7FCBE22F008021A6071E7AF
:10EDF00002B0BDE8F041FFF769BC144B174A187820
:10EE00001268009200EB800003EB8000144DC26892
:10EE10004369017902EB42020C3055F822500D2271
:10EE2000A8470423237055E70123237052E70D4BB5
:10EE30001B68002BD0D14DE749230020442300203C
:10EE40005423002048230020F43E020054220020D6
:10EE500020230020083F02005C23002050230020D4
:10EE600028230020242300204B4BDFF84CC12DE940
:10EE7000F0014A4C4A4F4B4E4B4D002202214FF0BD
:10EE800010201A705A701A71DA801A615A611A8148
:10EE90001A765A835A629A629A8383F82C20DA850A
:10EEA0009A63DA631A8683F84020A3F84220DA6472
:10EEB0001A65A3F8442083F85420A3F856201A6654
:10EEC0005A66A3F8582083F86820D96019625963FC
:10EED0009964D9652280A3F86A20406919675A6746
:10EEE0009A67A3F86C2083F87C20A3F87E20C3F8EF
:10EEF0008410C3F88820C3F88C20A3F8802083F8FE
:10EF00009020A3F89220C3F89810C3F89C20C3F86F
:10EF1000A020A3F8942083F8A420A3F8A620C3F887
:10EF2000AC10C3F8B020C3F8B420A3F8A82083F82D
:10EF3000B820A3F8BA20C3F8C010C3F8C420C3F89F
:10EF4000C820A3F8BC204FF08053421C14BF1B699B
:10EF50005869164C164A18BF1FFA83F84FF08053B1
:10EF600018BFB0FBF8F01969124B03381FFA81F88B
:10EF700008FB00F804210020CCF8008038602060F5
:10EF8000186018815881D8609882D88211603070DA
:10EF90002860BDE8F0017047542200204023002083
:10EFA0005C2300204923002054230020202300203C
:10EFB00044230020282300204C2300202DE9F007C3
:10EFC000364B1B685B0703D40820BDE8F007704789
:10EFD00068B161B1036853B14FF0805283881469FE
:10EFE000A4B2A34207D90720BDE8F00770470E205E
:10EFF000BDE8F00770470F2BF5D9C488002CF2D07C
:10F000004FF01026264F76693D68B6F1FF3F17BFD7
:10F010001269566992B2B6FBF2F64FF08052013E89
:10F02000D2F810C01FFA8CFC03FB04540CFB06F64C
:10F03000B442D8D813F0030AD5D11A4E3488022C22
:10F0400029D0DFF864904D604FF00C0808FB04F8FD
:10F050000C6009EB080103684D60B0F804C049F882
:10F060000830B0F80680A1F808C0A1F80A8010693D
:10F07000D2F81090116980B208FB0C0001381FFA19
:10F0800089F290FBF2F289B2013401FB025550463D
:10F0900034803D6099E7042097E700BF44230020B7
:10F0A0004C230020402300202823002070B4144B60
:10F0B0001B685B0702D4082070BC704730B12AB1CE
:10F0C0000368012B05D9072070BC70470E2070BC67
:10F0D000704703EB4304A4000A4D2E592C44002E24
:10F0E000F1D0466865892089646800FB016105FBF1
:10F0F00000408142E7D2136051600020DCE700BF8E
:10F100004423002028230020F0B51E4C2468670704
:10F1100083B00D46164602D4082003B0F0BD31B1CD
:10F1200028B10268012A05D9072003B0F0BD0E20DE
:10F1300003B0F0BD02EB4202920013498C580A441E
:10F14000002CF1D0118957895468426801FB0744AB
:10F15000A242E9D2002EE7D0B142E5D3F418A14291
:10F16000E2DBAC0701D01020D7E79907FBD192076B
:10F17000F9D1009301462A4633460120FEF7A4FF49
:10F18000CBE700BF4423002028230020F0B51E4C0D
:10F190002468670783B00D46164602D4082003B0E2
:10F1A000F0BD31B128B10268012A05D9072003B0AA
:10F1B000F0BD0E2003B0F0BD02EB420292001349F5
:10F1C0008C580A44002CF1D0118957895468426840
:10F1D00001FB0744A242E9D2002EE7D0B142E5D3B9
:10F1E000F418A142E2DBAC0701D01020D7E7990761
:10F1F000FBD19207F9D1009301462A4633460420F9
:10F20000FEF762FFCBE700BF442300202823002045
:10F210002DE9F041254C2468640782B006460D466E
:10F22000174603D4082002B0BDE8F08139B130B1EF
:10F230000A68012A07D9072002B0BDE8F0810E2034
:10F2400002B0BDE8F08102EB42029200184CA158D6
:10F2500022440029EFD01089B2F80AC052686968C8
:10F2600000FB0C229142E6D2002FE4D0B842E2D358
:10F27000FA189042DFDBB00701D01020D3E79A07DD
:10F28000FBD111F00308F8D119443A46304603F097
:10F29000E0FE2B6800970C2202FB03F22846A458DC
:10F2A000334602214246A0474046BCE744230020A3
:10F2B0002823002070B5214B1A68520782B00B46F4
:10F2C00002D4082002B070BD28B10268012A04D916
:10F2D000072002B070BD0E20F4E702EB420292005C
:10F2E00017498C580A44002CF2D01446556834F85B
:10F2F000081F4268648801FB0454A242E8D29607C2
:10F3000001D01020DEE7551BB5FBF1F601FB1655C9
:10F31000002DDDD1B3FBF1F501FB153189B20029D8
:10F32000D6D1002BD4D01A449442D1D30022014626
:10F3300000920320FEF7C8FEC4E700BF442300206C
:10F3400028230020064B1B685B0701D40820704768
:10F3500020B1044B5B780360002070470E2070479B
:10F3600044230020542200202DE9F00104460878AF
:10F370009DF814509DF8187078B9D4F8246192F86B
:10F3800000C0DEB10123C4F8240163610B70AC45F9
:10F390000AD00120BDE8F00170470023C4F82431F1
:10F3A000C4F81C31C4F80831D4F80431002BF0D073
:10F3B0000020C4F80401BDE8F0017047D4F81C81B6
:10F3C000B8F1000F0CD0C4F81C61D4F82481B8F156
:10F3D000000F20D00123C4F8246163610B70D6E7CD
:10F3E000D4F808010028D2D0C4F80881D4F8240148
:10F3F000F8B911788D42CAD9D4F818055854137841
:10F400000133DBB2691E8B4213701AD09D42BED00D
:10F4100001232362BBE711788D4203D8012377B122
:10F42000E361B7E75B5CC4F81C35137801331370F4
:10F43000ADE70123C4F8248163610B70A7E7636122
:10F44000A5E70223C4F80032E2E700BF2DE9F0038C
:10F45000012B4FF00004C1F80441C1F82441C1F868
:10F460001C41C1F8084180F8264080F823400CBFB9
:10F4700002240124C1F8004201240C620C600568DA
:10F480004DB140F2862383608368C1F804330020C5
:10F49000BDE8F0037047A44603F1FF384FF00209BE
:10F4A00090F82340D4B9D1F8246190F826705EBB5F
:10F4B000D1F81C418CB3C1F81C61D1F82441002C57
:10F4C00049D190F82640A3424CD9145DC1F81C459F
:10F4D00090F82640013480F826401BE0C1F8245102
:10F4E000C1F81C51C1F80851D1F80461002ED7D0E1
:10F4F0000023C1F8043190F82330002B14BF0320FF
:10F500000020BDE8F0037047C1F82441C1F814C0E1
:10F5100080F823C0BB42C3D1E6E7D1F80861002ED2
:10F52000F8D0C1F80841D1F82461002EECD190F850
:10F530002640A342EED9D1F81865165590F826401A
:10F540000134E4B2444580F826400ED0A342E1D015
:10F55000C1F820C0DEE7C1F82461C1F814C080F80A
:10F5600023C0D7E7C1F814C0D4E7C1F80092EFE791
:10F570002DE9F84380460079DFF818C300EB8007D7
:10F58000FF000CEB070696F8224014B10820BDE8F6
:10F59000F883002900F077814CF80720002273607F
:10F5A000B26086F8252086F824200A684FF0A04330
:10F5B00002F5E07240F20C6043F822004A6802F55E
:10F5C000E074012243F82400086802FA00F0C3F84E
:10F5D000080548688240C3F808250A6802F5E0700B
:10F5E00040F20D6243F82020486800F5E0740420E2
:10F5F00043F82420013800BF00BF00BF00BF00BF98
:10F6000000BF00BF00BF00BF00BF00BF00BF00BF02
:10F6100000BF00BF00BF00BF00BF00BF00BF00BFF2
:10F6200000BF00BF00BF00BF00BF00BF00BF00BFE2
:10F6300000BF00BF00BF00BF00BF00BF00BF00BFD2
:10F6400000BF00BF00BF00BF00BF00BF00BF00BFC2
:10F6500000BF00BF00BF00BF00BF00BF00BF00BFB2
:10F6600000BF00BF00BF00BF00BFC3D10022012404
:10F67000D3F810954D6829FA05F919F0010F4FF0EC
:10F68000040040F0FD800D6804FA05F5C3F80C5540
:10F69000013800BF00BF00BF00BF00BF00BF00BFF8
:10F6A00000BF00BF00BF00BF00BF00BF00BF00BF62
:10F6B00000BF00BF00BF00BF00BF00BF00BF00BF52
:10F6C00000BF00BF00BF00BF00BF00BF00BF00BF42
:10F6D00000BF00BF00BF00BF00BF00BF00BF00BF32
:10F6E00000BF00BF00BF00BF00BF00BF00BF00BF22
:10F6F00000BF00BF00BF00BF00BF00BF00BF00BF12
:10F7000000BF00BF00BFC3D1086804FA00F0C3F80F
:10F7100008050420013800BF00BF00BF00BF00BFC4
:10F7200000BF00BF00BF00BF00BF00BF00BF00BFE1
:10F7300000BF00BF00BF00BF00BF00BF00BF00BFD1
:10F7400000BF00BF00BF00BF00BF00BF00BF00BFC1
:10F7500000BF00BF00BF00BF00BF00BF00BF00BFB1
:10F7600000BF00BF00BF00BF00BF00BF00BF00BFA1
:10F7700000BF00BF00BF00BF00BF00BF00BF00BF91
:10F7800000BF00BF00BF00BF00BFC3D10132092AC4
:10F790007FF46EAF4D6801224FF0A04302FA05F5E9
:10F7A000C3F80C550420013800BF00BF00BF00BFE4
:10F7B00000BF00BF00BF00BF00BF00BF00BF00BF51
:10F7C00000BF00BF00BF00BF00BF00BF00BF00BF41
:10F7D00000BF00BF00BF00BF00BF00BF00BF00BF31
:10F7E00000BF00BF00BF00BF00BF00BF00BF00BF21
:10F7F00000BF00BF00BF00BF00BF00BF00BF00BF11
:10F8000000BF00BF00BF00BF00BF00BF00BF00BF00
:10F8100000BF00BF00BF00BF00BF00BFC3D14B6827
:10F8200001204FF0A04200FA03F3C2F808350A683D
:10F830004FF0A04302F5E07040F20C6243F8202044
:10F84000486800F5E07043F82020D8F800300A68D6
:10F850004868C3F80825C3F80C058A68C3F824254E
:10F860005CF8073033B1D8F80000097B40F307306B
:10F87000FDF7B2FC012386F822300020BDE8F883B2
:10F88000002A88D1D3E7024901EB001184E600BFCA
:10F890001C3F0200602300200379064A016803EB45
:10F8A000830302EBC30305200222C1F8000583F89D
:10F8B00022207047602300202DE9F04F1746BA0739
:10F8C00085B00B4690F804C003D0062005B0BDE813
:10F8D000F08F0CEB8C0C544E05684FEACC0B4FF0BC
:10F8E000FF3206EB0B04C5F8082394F8242032B14C
:10F8F000A368C5F80433112005B0BDE8F08F87F088
:10F900000402C2F3800217F0080A84F82420DCD134
:10F91000A76107C904F10C0888E807009A7884F801
:10F9200020205A68E2615A78C5F888251A78012A99
:10F9300071D072B3012784F8217093F80280D3F854
:10F940000490C5F804A1C5F824A1C5F81CA1C5F808
:10F9500008A1C5F800A284F826A084F823A02F628D
:10F96000AF6094F82630984530D80123EB6156F803
:10F970000B30002B38D040F28623A360A368C5F873
:10F980000433002056F80B30002B9FD184F824302C
:10F990009CE7C7F3401784F82170012193F8028097
:10F9A000D3F80490C5F80421C5F82421C5F81C211A
:10F9B000C5F80821C5F8002284F8262084F8232001
:10F9C0002962A96094F82630984509D919F80330BE
:10F9D000C5F81C3594F82630013384F82630C6E784
:10F9E000002FC2D16961C2E704F12303039304F13C
:10F9F000260ACDF8008001972846039952464B46C7
:10FA0000FFF7B2FC0028F4D194F82330002B14BF88
:10FA100003200020B6E784F821A05A689B78294685
:10FA20002046FFF713FDADE7602300202DE9F04FDE
:10FA300089B000249DF8487005948A4694461E4675
:10FA400006940794E7B90297039790F80480DFF8CB
:10FA50001891056808EB88084FEAC8084FF0FF3393
:10FA600009EB0804C5F8083394F8242002F0FF03DA
:10FA70005AB1A368C5F80433112009B0BDE8F08F6E
:10FA80000123202702930397DFE70DF1200B8DF868
:10FA900015A08DF81660CDF818C01BE907004FF0CF
:10FAA000010B84F824B0039FA76104F10C0B8BE8D1
:10FAB00007000122DDF808B084F82060C4F81CC0FB
:10FAC000C5F888A584F821B0C5F80431C5F82431FB
:10FAD000C5F81C31C5F80831C5F8003284F8263065
:10FAE00084F823302A62AA6094F826309E4214D803
:10FAF0005B46E3B10127EF6159F80830D3B140F21A
:10FB00008623A360A368C5F80433002059F80830A1
:10FB1000002BB2D184F82430AFE71CF80330C5F8CD
:10FB20001C3594F82630134484F82630E4E701228B
:10FB30006A61E1E7029F039404F1230B04F1260AB2
:10FB400064468DE8C0002846594652462346FFF7D2
:10FB50000BFC0028F5D1039C94F82330002B14BF34
:10FB600003200020D2E700BF602300202DE9F04FE2
:10FB70000479DFF88C80056804EB8404E7004FF01B
:10FB8000FF3008EB0704C5F8080385B094F824603B
:10FB900000208A46944606F0FF09019002900390E7
:10FBA00036B1A368C5F80433112005B0BDE8F08F65
:10FBB0004FF0010E8DF806308DF8051002928DF889
:10FBC00004E004AE16E9070004F10C06C4F818902E
:10FBD00084F824E086E8070084F82030C4F81CC0CC
:10FBE0002946C5F888A56246204684F82190FFF78B
:10FBF0002DFC58F80730002BD7D184F82430D4E7F7
:10FC0000602300202DE9F04FAF4CB04B94F8232037
:10FC1000E66994F8201094F8217087B082B9D3F87F
:10FC2000240194F82650002839D00120C3F824215B
:10FC300084F823005861A94209D007B0BDE8F08FCD
:10FC40000022C3F82421C3F81C21C3F808219F4BCC
:10FC5000D3F80421002AF0D00022C3F8042194F83C
:10FC60002310994B59BB187B821ED2B2012A5BD953
:10FC7000974B93E8070006AD05E9070000238DF8D0
:10FC80000830A36990490022580784F82420D4D46E
:10FC90000B68496802A8984707B0BDE8F08FD3F811
:10FCA0001C211AB3C3F81C01D3F82421002A6CD0FC
:10FCB0000122C3F8240184F823205A61BBE70C33E6
:10FCC00093E8070006AB03E90700804AD2F8C43482
:10FCD000C2F8C4349A0703D501238DF80830D0E761
:10FCE0005D0744BF02238DF80830CAE7D3F8080146
:10FCF0000028A0D0C3F80821D3F82401002894D10B
:10FD0000A94298D9D3F81825725594F826200132C3
:10FD1000D2B2481E824284F8262050D091428AD026
:10FD20006A4B01221A6286E7DD691A6995429FD102
:10FD30009A695E69DD7BDE61C2F34012032883F8B5
:10FD4000212083F820503ED0604A83F82310012DF3
:10FD500083F826100CBF02230123C2F80411C2F855
:10FD60002411C2F81C11C2F80811C2F80032574B16
:10FD7000554901221A621A6024689CB140F2862219
:10FD80008A608A68C3F8042357E7A94203D801228E
:10FD90009FB1DA6163E7725DC3F81C256B1C84F8C0
:10FDA000263048E74B4900950194CA1C4748334622
:10FDB000FFF7DAFA0028F5D13FE75A613BE7022264
:10FDC000C3F80022ACE7414883F82610012783F8E6
:10FDD0002310C0F80411C0F82411C0F81C11C0F899
:10FDE0000811C0F80012076287607DB13178C0F851
:10FDF0001C1583F826702068334F60B140F28623CB
:10FE0000BB60324BBA68C3F8042316E70AB1C76176
:10FE1000F1E74761EFE72D4B05F1FF3B4FF001089C
:10FE200094F8231019BBD3F8249197F826C0DFF873
:10FE30009CA0B9F1000F21D1D3F81C1129B3C3F84C
:10FE40001C91D3F82411002946D0C3F8249187F8D7
:10FE50002380C3F814806545E2D1D3F80411DFF89C
:10FE60006CC00029DCD00023CCF80431E5E6C3F8EF
:10FE70002401C3F81C01C3F80801EEE7C3F82411FC
:10FE800087F82380C3F81480E5E7D3F80891B9F127
:10FE9000000FE0D0C3F80811D3F82491B9F1000F96
:10FEA000ECD16545D7D9D3F8181506F80C1097F89A
:10FEB00026100131C9B2594587F826101DD08D4250
:10FEC000C9D0C3F82080C6E760230020003000407E
:10FED0006C23002083230020654508D916F80C10F8
:10FEE000C3F81C150CF1010187F82610B3E7002AAE
:10FEF000C8D00123CAF81C309FE60221C3F80012C3
:10FF0000DFE700BF0020704776DF70477ADF704779
:10FF10007CDF70473CDF704748DF7047014B0122B0
:10FF20001A707047A0260020B621014AFCF710BBCA
:10FF3000403F020010B50446FEF7B2FE2046BDE881
:10FF4000104001F0C9BD00BF0378012B08D0022B7F
:10FF500005D14068054A40F2E511FCF7F9BA70474F
:10FF60004068024A40F2E911FCF7F2BA403F020051
:10FF700008B52AB110464FF4C771024AFCF7E8FAF7
:10FF8000002008BD403F020008B5037803B108BD5A
:10FF9000064B3B211888FFF7B7FF0028F7D0AB21AD
:10FFA000034ABDE80840FCF7D3BA00BFE4200020B4
:10FFB000403F020010B5044602F082FA204601F0EC
:10FFC0006FFE2388102B11D0112B06D1154B16482C
:10FFD0004FF6FF721A80FCF747FF204601F022FD22
:10FFE00021461248BDE8104000F07CBA0720FFF718
:10FFF00089FF80B90B4BA2881A800B4840F26661DA
:020000022000DC
:100000000022FCF7C5FE0028E7D040F21111084A93
:10001000FCF79EFAE1E74FF48771054AFCF798FA7E
:10002000E8E700BFE4200020A4260020BC2900202F
:10003000403F020008B530B1032803D10220FFF78A
:1000400061FF50B908BDFFF765FF0028FAD0E52130
:10005000054ABDE80840FCF77BBAF721024ABDE833
:100060000840FCF775BA00BF403F020010B582B0EF
:1000700000F036FC38BB002407210122182301A818
:1000800001948DF804108DF805208DF8063000F0ED
:1000900021FC90B99DF8003002A8062262F3030308
:1000A00000F8083D684600F069FC20B140F22121CB
:1000B000084AFCF74DFA02B010BD4FF40771054A2B
:1000C000FCF746FAE6E740F21521024AFCF740FA4F
:1000D000D1E700BF403F02002DE9F0430023A3B069
:1000E0004FF4F0104FF0A041032203E0ED0748BFAA
:1000F00041F824200133202B40FA03F503F5E07486
:10010000F4D1A74BDFF8E8E2A64E93E807004FF0E2
:10011000A0434FF4F01700250AACC3F80875C3F8E4
:100120000C55012784E807004FF48075062320460C
:1001300014A99D4ACDF850E0159716961795FCF72F
:10014000ABFF20B140F20B21984AFCF701FA0020E6
:1001500003460521964AFCF799FD18B16A21934A96
:10016000FCF7F6F99348944A0121FCF7FFFD18B11A
:100170006E218E4AFCF7ECF9904B914918680A9071
:1001800048222046002302F09BFE20B14FF4A571C7
:10019000864AFCF7DDF90020012114AA02F0FAFEDC
:1001A00020B14FF4A871814AFCF7D2F9854802F0DA
:1001B00009FF20B140F253117C4AFCF7C9F914A899
:1001C00002F00AFF20B140F25711784AFCF7C0F95B
:1001D0007D4802F0B5FE20B140F25B11734AFCF796
:1001E000B7F97A4802F0B6FE20B140F25F116F4ACB
:1001F000FCF7AEF900238DF82830FEF735FE20B16C
:100200004FF4D471694AFCF7A3F9204602F052F882
:1002100020B140F2AB11654AFCF79AF900210522A2
:100220000DF15500FCF78AF99DF85530684A149293
:1002300043F00103032203F0FD0362F306136FF39F
:10024000C71307261025012262488DF8553014A9DE
:100250008DF856608DF857508DF8542002F0D0F884
:1002600020B140F2B911514AFCF772F99DF82830DB
:100270005948012262F3030362F307138DF8283013
:1002800002F008FF544982B22046FFF741FE18B140
:100290008221464AFCF75CF900210822502514A867
:1002A000FCF74CF9A02100224FF4C8730DEB0500B8
:1002B000ADF85050ADF85210ADF85420ADF85630AE
:1002C000FFF724FE18B18D21384AFCF741F90025CB
:1002D0000021382214A8FCF731F94FF002084FF042
:1002E000060C4FF0010E4FF49677B4260095294680
:1002F00014A82246394B0D950A950B950C9510952F
:10030000119512958DF850808DF853C08DF834E01A
:100310000E970F9601F074F920B14FF4E871234A5B
:10032000FCF716F92E4800F0EBF800211C2214A867
:10033000FCF704F94FF4203700234FF4702603250F
:100340002849294A149314A8ADF85E308DF860301E
:10035000159716968DF85C5019911A9201F066FC6B
:1003600018B1CD21114AFCF7F3F8FFF77FFE032007
:1003700001F0FCF920B140F23F210C4AFCF7E8F80B
:10038000204600210A22194CFCF7D8F82646FFF730
:10039000C3FD78B34FF4ED71044AFCF7D9F829E0B6
:1003A0002C3F0200D823002049FF0100403F0200FB
:1003B000D82400203C3F02001DFF0100383F02000E
:1003C00088230020E81F0020B5FF010035FF010051
:1003D00071FF0100D0230020783F020035000200A9
:1003E000BC29002089FF010029FF0100A026002070
:1003F000D42300202378002BC9D004A800F082FA6F
:1004000006A800F09DFA002108A800F0D1FABDF876
:100410001230BDF81050BDF81400BDF818C0BDF87A
:1004200020E0BDF82270BDF81C90BDF81A80ADF830
:100430005230DAB2290A0092EAB21B0A0191029202
:10044000010AC2B2ADF85050ADF85400BDF82450C6
:100450001C48ADF856C0ADF860E0ADF85E70ADF880
:100460005C50ADF85A90ADF8588002F0FBFDBDF835
:100470005830BDF85610BDF85A201348DFB20D0AA7
:10048000C9B200971B0A01950291110AD2B202F07B
:10049000E9FDBDF85E30BDF85C10BDF860200B488A
:1004A000DFB20D0AC9B21B0A02910097110A019529
:1004B000D2B202F0D7FD064814A900F0B9F8002323
:1004C000337064E7843F0200BC3F0200F03F02004B
:1004D000BC290020A0DF7047A2DF7047A6DF70476D
:1004E00063DF70470B88102B06D0112B03D14FF61A
:1004F000FF730380704770478B880380704700BF8D
:10050000F0B5494C97B06168E368A2680546206879
:1005100006AC0FC44FF20D0306A80DF10E01ADF8A5
:100520000C30FFF7DDFF002878D12A464FF6FF7325
:1005300022F8023B012003A9FFF7CCFF18B1662186
:100540003A4AFCF705F801244AF6CE4300211C2262
:100550000FA88DF80A40ADF80830FBF7EFFF9DF8C3
:1005600000E09DF801609DF802309DF83CC064F306
:100570004203002164F3030E64F3030601AF64F346
:10058000071E4CF01A0C64F3071603228DF8023094
:1005900038460DEB01038DF83CC08DF800E08DF876
:1005A00001601493FBF7CAFF9DF804E09DF8056015
:1005B0009DF8063064F3030E64F3030664F3071E2C
:1005C00064F3420364F30716002114220AA88DF88D
:1005D00004E08DF805608DF806301226FBF7AEFFBB
:1005E00000240DF1080C0DF1100E0FA90AAA68885D
:1005F0000B972B1DCDF828C0ADF83460ADF83060F6
:100600000494ADF81440CDF838E0FFF765FF18B159
:100610004B21064AFBF79CFF17B0F0BD5E21034A51
:10062000FBF796FF81E700BF244002003440020040
:1006300070B502884FF6FF739A4286B004460D46A5
:1006400017D012230021102202A8ADF80030FBF7CA
:1006500075FF0023A688ADF80C3001226B4402A977
:1006600020880595ADF808608DF80A200493FFF7FF
:1006700035FF06B070BD00BF03784BB90379032B7B
:1006800006D8DFE803F006020206044B01221A70C6
:100690007047034B01221A70704700BFC426002028
:1006A000C5260020094B10B50FCB84B08DE80F0094
:1006B00069460748074A0023FEF75AFF044610B967
:1006C0000348FFF7E9F8204604B010BD704002006F
:1006D000804002007906020070B5154C03462046A2
:1006E00084B000F8013B154602F0B3FC00231A4623
:1006F00001A9013568260F488DF804308DF80650A1
:1007000002948DF80560FFF7D7F80B4942F2107399
:1007100001E0013B04D00A78074C002AF9D013B954
:100720000D2004B070BD0023237004B070BD00BF65
:10073000C829002080400200C526002010B584B0E2
:1007400000238DF808008DF8091000930C486821EB
:1007500002AA0223FFF76AF958B90A4942F2107354
:1007600001E0013B04D00A78064C002AF9D013B905
:100770000D2004B010BD0020207004B010BD00BFDB
:1007800080400200C52600202DE9F04184B004AC71
:10079000002304F8010D88461746009322461748A7
:1007A00068210123FFF742F958B9154D42F2107044
:1007B00001E0013804D02C78114E002CF9D018B982
:1007C0000D2004B0BDE8F081002131704246FBB23B
:1007D0000A486821FFF7CAF90028F2D1094942F214
:1007E000107301E0013BEBD00A78064C002AF9D0E7
:1007F000002BE5D000202070E3E700BF804002001E
:10080000C5260020C42600202DE9F04184B004ACA8
:10081000002304F8010D8846174600932246174826
:100820000C210123FFF702F958B9154D42F210705F
:1008300001E0013804D02C78114E002CF9D018B901
:100840000D2004B0BDE8F081002131704246FBB2BA
:100850000A480C21FFF78AF90028F2D1094942F22F
:10086000107301E0013BEBD00A78064C002AF9D066
:10087000002BE5D000202070E3E700BF804002009D
:10088000C5260020C426002010B584B000238DF8B2
:1008900008008DF8091000930C480C2102AA0223CD
:1008A000FFF7C4F858B90A4942F2107301E0013B5E
:1008B00004D00A78064C002AF9D013B90D2004B0F0
:1008C00010BD0020207004B010BD00BF80400200A9
:1008D000C5260020014604221920FFF7FDBE00BFF7
:1008E00008B5FFF7DFFE00B108BD68200721FFF75C
:1008F00025FF0028F8D16B200121BDE80840FFF753
:100900001DBF00BFF0B583B0044669463B200622F8
:10091000FFF73AFF88B99DF805709DF804609DF8CF
:1009200003509DF802109DF801209DF800302770BB
:100930006670A570E1702271637103B0F0BD00BFF5
:10094000F0B583B00446694643200622FFF71CFF3A
:1009500088B99DF805709DF804609DF803509DF8D6
:1009600002109DF801209DF8003027706670A57078
:10097000E1702271637103B0F0BD00BF10B582B0A9
:100980006946044601223720FFF7FEFE9DF800303D
:1009900043F00203194637208DF80030FFF7CEFEF2
:1009A00018B921780A20FFF76FFF02B010BD00BF11
:1009B00010B5034682B00C46032019460622FFF705
:1009C00023FF28B934B1214609200122FFF71CFF7B
:1009D00002B010BD0DF1070101220920FFF714FF3D
:1009E000F6E700BF71DF704772DF704779DF70474D
:1009F0007DDF704765DF704770B5044600880128C9
:100A000084B00E4606D01588A81C984205D90C2043
:100A100004B070BD072004B070BD2178012904D155
:100A20006178023129448B42F1D3023B5D1B04A95A
:100A3000ADB221F8085D30440192FFF7D9FF019A69
:100A40000028E5D12378022B17D0012B11D02B469B
:100A50000821FE2BDBD810885C1C34541088013030
:100A600080B210803154118801310B441380002072
:100A7000CEE763789D42EAD3EAE7BDF808309D42AD
:100A8000E5D30921E5E700BF2DE9F04F85B08346A6
:100A90000E9D0088BDF83C40B5F800A00194894641
:100AA0001646984600283CD000273C4604E0BBF898
:100AB00000300134A34226DDDBF8043053F8240073
:100AC000039002A903A80022FFF794FF20BB9DF822
:100AD0000830B342EBD147B32A88019993198B426E
:100AE00019DC424403A802A9FFF784FFA0B92B88B0
:100AF0009DF8082013442B80BBF800300134A3423A
:100B00004FF00107D8DC67B12B88013BCAEB030328
:100B10009BB2FF2B03D90C2005B0BDE8F08F08F87D
:100B20000A30002005B0BDE8F08F2A880199531CD7
:100B3000324402328A429BB2EDDC2B8008F80390EB
:100B40002A88013292B22A80CBE700BF2DE9F04714
:100B5000002317881380436B86B0144606460D4663
:100B6000BBB1022F1A7803D80C2006B0BDE8F0877D
:100B700002230B70238801339BB211212380E95497
:100B8000238801339BB22380EA54238801339BB22C
:100B90002380326B002A6FD003F11201B942E3D8EF
:100BA0001121E954238801339BB210212380E95499
:100BB000238801339BB22380D17BE95423880133FE
:100BC0009BB22380917BE954238801339BB223801D
:100BD000517BE954238801339BB22380117BE95474
:100BE000238801339BB22380D17AE95423880133CF
:100BF0009BB22380917AE954238801339BB22380EE
:100C0000517AE954238801339BB22380117AE95445
:100C1000238801339BB22380D179E954238801339F
:100C20009BB223809179E954238801339BB22380BE
:100C30005179E954238801339BB223801179E95417
:100C4000238801339BB22380D178E9542388013370
:100C50009BB223809178E954238801339BB223808F
:100C60005178E954238801339BB223801278EA54E7
:100C7000238801339BB2238096F82E20002A4FD17F
:100C800096F82D20002A64D1B278002A40F08C809A
:100C9000F278A2B1D91CB9423FF666AF0221E954FD
:100CA000238801339BB201212380E95423880B441C
:100CB0009BB22380EA5423880B449BB22380726842
:100CC000A2B1D91CB94210783FF64EAF0222EA54C5
:100CD000238801339BB20A222380EA5423880133FC
:100CE0009BB22380E8542388013323803389002B6F
:100CF00040F0F780338A002B40F06A81338B002B61
:100D000040F07F81336A002B00F0AC802288911D77
:100D1000B9423FF629AF1988052967D8072024E78B
:100D2000D91CB9423FF620AF0221E9542388013390
:100D30009BB21C212380E954238801339BB2013AE2
:100D40002380032AEAD8DFE812F03D0140013A018E
:100D500033010933BB423FF607AF04A8FFF742FE59
:100D600000287FF402AF23880822EA542388013345
:100D70009BB21B222380EA542088013080B220805D
:100D8000062228440DF1110102F063F923889DF831
:100D9000102006339BB2238002B10122EA5423883B
:100DA00001339BB223806FE70433BB423FF6DCAED6
:100DB00004A8FFF71BFE00287FF4D7AE2388BDF8F8
:100DC00010100322EA54238801339BB21922238096
:100DD000EA5423885A1C92B20333A8189BB24FEAF4
:100DE000112CA95480F801C0238051E76FF44869A1
:100DF00001EB090C1FFA8CFC4FF27D3084458DD934
:100E0000B3F802C0BCF1050F88D96FF44868E0441C
:100E10001FFA88F8804581D94FF6FF70814204D0CF
:100E2000844502D061453FF679AF0521A954228857
:100E3000013292B212212280A9542288511C89B217
:100E400021801888685405EB010CD11C89B2000A76
:100E50008CF8010021805B886B5429441B0A053201
:100E60004B702280736A002B2DD09A882188101D28
:100E70000844B8423FF678AE901CFE283FF674AEA8
:100E800003326A542288013292B2FF212280A9548F
:100E90002088421C92B222801988A95403302A4427
:100EA00080B2090A517020809A8862B1996800293D
:100EB0003FF434AF2844039302F0CBF8039B22881D
:100EC0009B881344238096F82C301BBB3078002875
:100ED0003FF44BAE3046294622463B46FFF78CFD99
:100EE00043E606F1080802218DE8900040460A46D4
:100EF0002B46FFF7C9FD00287FF437AE8DE8900040
:100F00004046062110222B46FFF7BEFD00283FF485
:100F1000F1AE2AE6D6F82880B8F1000F3FF4FEAE15
:100F2000B8F804200232FE2A3FF61EAE23884FF0A6
:100F300000094FF0160A08E0B26A02EB8808B8F818
:100F400004200232FE2A3FF60FAE0132EA54238813
:100F500001339BB2238005F803A023885A1C92B268
:100F60002280B8F80010A95403332A449BB2090A1E
:100F700051702380B8F80410E8180A4669B1D8F80F
:100F800008301946002B3FF4C9AE02F062F8B8F8F9
:100F90000430228813449BB2238009F1010996F89A
:100FA0002C205FFA89F94A4509EB4908C4D88DE736
:100FB0000322EA54238801339BB2238060E6022295
:100FC000EA54F7E70022EA54F4E70122EA54F1E791
:100FD00006F110088DE890004046032102222B46BE
:100FE000FFF752FD00287FF4C0AD8DE89000404629
:100FF000072110222B46FFF747FD00283FF47EAE65
:10100000B3E506F118088DE890004046142102224D
:101010002B46FFF739FD00287FF4A7AD8DE890003F
:101020004046152110222B46FFF72EFD00283FF4E5
:1010300069AE9AE52DE9F04796B01F2304460D46A8
:10104000ADF81030002800F09F80C3785B0740F1B6
:101050009780436B0022ADF80820002B00F07181CF
:101060001B788DF81A300322022011231146ADF8A7
:10107000082016468DF818008DF819300522042036
:10108000236B002B64D016AE31443044112701F895
:10109000407C102616A900F8406C1144D87B01F85A
:1010A000400C16A91144987B01F83F0C16A9114475
:1010B000587B01F83E0C16A91144187B01F83D0C31
:1010C00016A91144D87A01F83C0C16A91144987A53
:1010D00001F83B0C16A91144587A01F83A0C16A9EC
:1010E0001144187A01F8390C16A91144D87901F87D
:1010F000380C16A91144987901F8370C16A9114437
:10110000587901F8360C16A91144187901F8350CF4
:1011100016A91144D87801F8340C16A9114498780E
:1011200001F8330C02F10E0116A8ADF808100844BE
:101130005E7800F8406C02F10F0116A80844ADF883
:10114000081010321B7800F8403CADF8082096B229
:1011500094F82E30002B40F01C8194F82D30002B99
:1011600040F04A81A378002B40F07D81E378002B8A
:1011700039D0F21C1F2A21D90C2016B0BDE8F08707
:10118000072016B0BDE8F087ADF80800002D00F08C
:10119000DD80EA78002AF3D128460EA904AAFFF7D9
:1011A000D5FC0028EDD19DF810300EAA20469DF800
:1011B0000810FFF719FC16B0BDE8F087701C16AFD9
:1011C000B11C17FA80F0374416AE16FA81F14FF0D1
:1011D000020C96B2012207F840CCADF8086000F886
:1011E000402C01F8403C6368B3B1F21C1F2A1B7805
:1011F000C2D816AF701CB11C17FA80F03E4417FA23
:1012000081F14FF0020C0A2706F840CCADF8082017
:1012100000F8407C01F8403C2389002B40F09B8083
:10122000238A002B40F04881238B002B40F0628101
:10123000236A002B42D0BDF80820911D1F299BD89E
:10124000188805289CD96FF4486800EB0807BFB2DE
:101250004FF27D36B74293D95F88052F90D96FF44E
:10126000486CBC441FFA8CFCB44589D94FF6FF7614
:10127000B04203D0B74201D0B84281D816AF561C55
:10128000BC4617FA86F69444901C80B212274FF0A1
:1012900005080CF8408CADF8080006F8407C1E8864
:1012A000ADF8081006AF39183E540432360A4E70B5
:1012B00092B25B88BB543A441B0A5370666AA6B369
:1012C000B088BDF80820831C911CCF181F2F3FF653
:1012D00053AFFE2B3FF650AF531C16AF0DF1580C19
:1012E00017FA83F3944489B20330FF270CF8400CBB
:1012F000ADF8081003F8407C338806AF78187B54AB
:101300001B0A4370101DB28880B2ADF8080062B1AC
:10131000B16800293FF434AF384401F09AFEBDF8BB
:101320000830B2881344ADF8083094F82C10002926
:1013300040F0FE8006AF2378002B40F04F813C4602
:1013400024E719461E460222012099E62B46ADF8F5
:1013500010502A462AE702AA04F1080606AF4FF009
:101360001F0802218DE8040130463B460A46FFF77C
:101370008BFB00287FF405AF02AB8DE808013046F7
:101380003B4606211022FFF77FFB00283FF448AFC1
:10139000F7E616AF721C17FA82F24FF0020C3744D0
:1013A0001C2106EB0C00013B07F840CC80B202F890
:1013B000401C032B3FF6E4AEDFE803F018120C02EA
:1013C00016A90844032300F8403C0336B6B2ADF832
:1013D0000860C2E616AF3844022300F8403CF4E748
:1013E00016AB1844012300F8403CEEE716AA10445F
:1013F000002300F8403CE8E709361F2E3FF6BCAE5C
:101400000EA8FFF7EFFA00287FF4BBAEBDF8083056
:1014100016AA03F1010E12FA8EFE9E1C1344B6B2F8
:101420004FF01B0C06AF4FF0080803F8408C0DF18D
:1014300039010622B8190EF840CCADF8086001F069
:1014400008FEBDF808309DF83820991D89B2002AA1
:1014500040F0CE8016AE314401F8402C07339EB2E6
:10146000ADF808607EE604361F2E3FF685AE0EA866
:10147000FFF7BCFA00287FF484AEBDF80830BDF851
:10148000381016A89A1C03F1010C92B206AF8146DF
:1014900010FA8CFC9944B81804339EB24FF0030A3A
:1014A0004FF019080B0A09F840ACADF808600CF8C9
:1014B000408CB954437059E602A904F1100606AFF6
:1014C0004FF01F088DE8020130463B4603210222FF
:1014D000FFF7DAFA00287FF454AE02AA8DE804017F
:1014E00030463B4607211022FFF7CEFA00283FF492
:1014F0009BAE46E602A904F1180606AF4FF01F089E
:101500008DE8020130463B4614210222FFF7BCFA67
:1015100000287FF436AE02AA8DE8040130463B462F
:1015200015211022FFF7B0FA00283FF481AE28E61B
:10153000D4F82880B8F1000F3FF422AEB8F80420A8
:101540000232FE2A3FF618AEBDF808604FF00009DF
:1015500006AF4FF0160A701C16AB0DF1580C13FABB
:1015600080F0B444B31C9BB201320CF8402CADF8AF
:10157000083000F840ACB8F80020FA543B44120A96
:101580005A700436B8F80430B6B21A46B819ADF835
:1015900008608BB1D8F808301946002B3FF4F0AD45
:1015A00001F057FDBDF80830B8F8046094F82C102D
:1015B0001E44B6B2ADF8086009F101095FFA89F975
:1015C000894509EB4908BFF4B6AEA36A03EB880866
:1015D000B8F804200232FE2ABDD9CDE520463946AE
:1015E00002AA1F23FFF708FA00283FF4A8AEC8E5B7
:1015F00016AF3944012201F8402C2FE773DF704702
:101600002DE9F047DDF820C005460E469846002833
:1016100000F08A80002A00F0878017460FCF444CE4
:10162000DFF83CA1DFF83CE1CAF800800FC40FCF1F
:101630000FC44FF00008DFF830913B683D483E4F43
:10164000236041460722CEF800C089F80080FAF7EF
:1016500075FF3A4B3A4A1A603A4C9C604146382230
:101660003846FAF76BFF05F1100393E80300AA78F8
:10167000EB7895F800C0BA70FB7007F110036C7836
:1016800087F800C083E8030005F1080393E803002E
:1016900005F1180C07F1080383E803009CE8030038
:1016A0006A6A7C7007F1180383E8030082B1264B55
:1016B0007B62686A25499960848802881A809C80C8
:1016C00034B143468268D25CCA540133A342F9D193
:1016D000AB6AA3B11E4BBB62AC6A1E489860A1887E
:1016E000998022881A80002329B1A268D25CC25452
:1016F00001338B42F9D195F82C3087F82C302B6AC6
:1017000033B1154B3B622A6A5188598012881A807E
:101710006B681BB1114B7B606B687B603146064880
:10172000BDE8F047FFF786BC0E20BDE8F08700BF9C
:10173000442700203C270020C82600208C270020BA
:1017400068270020C0270020002700201427002041
:10175000E82700209C270020E4270020882700207D
:101760000C27002038270020E0270020F0B5964DF8
:1017700087B006AC00232870684644F8183DFDF792
:10178000E1FD082800F0188100283FD1009B002BC4
:101790003CD18E4E8E4800210722FAF7CFFE737897
:1017A000002B39D1B378002B36D18A4F2B783A6889
:1017B000012B3CD1717891B18549487800283DD101
:1017C000887800283AD1C878002837D108790028CD
:1017D00034D14879002831D1897900292ED10223CA
:1017E0002B70B378002B00F0BB80794B597859B936
:1017F000997849B9D97839B9197929B9597919B97B
:101800009B79002B00F0AC80022317E0724B012281
:101810001A70002007B0F0BD2B78012B00F0C080BB
:10182000B27812B1022B00F0BB806A4F3A68022BEB
:10183000D7D0317B11B9032B00F09880317E11B9DC
:10184000042B00F0998022B1033BDBB2012B40F264
:10185000D180624B00221A70002118226846FAF7E4
:101860006DFE297800234A1E8DF8003001938DF813
:1018700008300393032A24D8DFE802F049632602E4
:10188000574BF1691879326AADF81010ADF8122093
:1018900000287DD03278002A7ED0524A1178002963
:1018A0007AD1514A0393042602231046D6708DF84C
:1018B0000830FFF7BFFB0028ACD14C4B297806223B
:1018C0001A70002935D02EE0454B716918793269BC
:1018D000ADF81210ADF81020002852D03278002A4E
:1018E00052D0404A117800294ED13F4A0393042632
:1018F00002231046D6708DF80830FFF79BFB0028B6
:1019000088D13A4B297805221A7091B10BE0304BFF
:1019100036490193012200230A708DF80020ADF8AA
:101920001230ADF810306846FFF768FE00287FF4EB
:1019300071AF3B6813B12D4A10789847002007B06B
:10194000F0BD23492948B26873680191022501213D
:1019500005708DF80010ADF81220ADF81030E2E7F8
:10196000317B03232B7000297FF46DAF317E04237C
:101970002B7000297FF467AF1C4900230B702B707C
:1019800061E71A7B002AA9D1184B03221A70CAE713
:101990001A7B002A7FF47EAF144B04221A70C2E730
:1019A0000C4F3A68002A34D0114B012108201970DD
:1019B00090472B783A68FBE66846FBF7ABFA0028BD
:1019C0003FF4E4AEE5E600BFE02700204427002016
:1019D0003C2700200C27002010270020BC270020D7
:1019E0008C27002034270020C8260020F427002060
:1019F000E12700203378002B3FF42BAF064B1B78F8
:101A0000002B7FF426AF054B01211970072090476A
:101A100022E703490A70CBE634270020BC270020C8
:101A2000E127002008B50388112B17D01B2B09D004
:101A3000102B00D008BD837D012BFBD1204B828869
:101A40001A8008BD037A002BF4D11E4B1B78013B92
:101A5000032BEFD8DFE803F02D271E15184B8288E3
:101A60001B88194900209A420870E3D10120FFF732
:101A70007DFE0028DED0154B1B68002BDAD098477E
:101A800008BD134B134A1B6800201070002BD1D0E7
:101A90009847CFE70F4B032204201A70FFF766FE2A
:101AA0000028E8D1C6E70320FFF760FE0028E2D156
:101AB000C0E70220FFF75AFE0028DCD1BAE700BFDA
:101AC000E6200020E02700203427002038270020CF
:101AD0000C270020F42700200238012808B502D87E
:101AE000084B1A7802B908BD0749002208781A7015
:101AF000FFF73CFE0028F6D0044B1B68002BF2D009
:101B0000984708BD10270020E02700203827002034
:101B100075DF704776DF70477ADF70477BDF70478D
:101B200010B5184B18884FF6FF73984282B014D046
:101B3000154B164C1A78217B0132D2B291421A70A1
:101B40000DD2227C0021197092B963692BB102A8D1
:101B5000002200F8082D6846984702B010BD0C49D5
:101B6000FFF7D6FF0028F8D0A369002BF4D1F4E7E3
:101B70003B21FFF7CFFF0028E7D0A369002BE4D07B
:101B80009847E2E740280020002800200428002091
:101B90004428002070B51F4B1F4A5B88118899426A
:101BA00082B010D852889A420DD31C4B5B692BB17E
:101BB00002A8012200F8082D68469847184C002317
:101BC000237002B070BD164C22786AB1134B5B696A
:101BD000002BF4D002A8002200F8082D6846984790
:101BE0000023237002B070BD0C4D0E486B68067860
:101BF000A9680D48002E08BF1946FBF7C9F8002850
:101C0000DDD0AB69002BDAD098470023237002B0F7
:101C100070BD00BFF82700204428002004280020C1
:101C2000F52700200028002020280020F8B50546D0
:101C30000FCD144C144F0FC4064695E8070000233F
:101C400084E807003B70B6B13068104B716803C37D
:101C5000A3F10800FFF760FF90B90D4D0D4C0E4841
:101C60000E4A00234FF6FF762E8023701946BDE8FA
:101C7000F840FBF77BB80548FFF750FF0028ECD091
:101C8000F8BD00BF04280020F527002044280020CC
:101C9000402800200028002088400200211B02006C
:101CA00038B50388112B27D012D9122B07D0502B0F
:101CB00044D1234CC288E3899A422FD038BD0830E2
:101CC00003C8204B83E80300BDE83840FFF762BF3C
:101CD000102B32D11C491A4C1A4B1C4DE48900F1CF
:101CE00018028088088092E80300002283E803003D
:101CF0002A70002CE8D038BD1349144B14484FF615
:101D0000FF7400220C801A70FBF7AEF80028D5D0C3
:101D10000B4B9B69002BD1D0984738BD038A022B0F
:101D2000CCD1837CDB07CFD40948FBF79DF8002892
:101D3000C4D0A369002BEFD1C0E738BD38BD00BFC8
:101D400004280020F8270020402800200028002038
:101D5000202800207FDF704786DF7047A7DF7047AD
:101D6000A9DF7047AADF7047002070470020704746
:101D70000020704700207047002070470020704707
:101D8000002070472DE9F8434478314904EBC40240
:101D900092008B1807465D6865B163002D4E1819D7
:101DA00006EB8000807A10F0800F1CD10025A84639
